{
  "_format": "hh-sol-artifact-1",
  "contractName": "WavePortal",
  "sourceName": "contracts/WavePortal.sol",
  "abi": [
    {
      "inputs": [],
      "stateMutability": "payable",
      "type": "constructor"
    },
    {
      "anonymous": false,
      "inputs": [
        {
          "indexed": true,
          "internalType": "address",
          "name": "from",
          "type": "address"
        },
        {
          "indexed": false,
          "internalType": "uint256",
          "name": "timestamp",
          "type": "uint256"
        },
        {
          "indexed": false,
          "internalType": "string",
          "name": "message",
          "type": "string"
        }
      ],
      "name": "NewWave",
      "type": "event"
    },
    {
      "inputs": [],
      "name": "getAllWaves",
      "outputs": [
        {
          "components": [
            {
              "internalType": "address",
              "name": "waver",
              "type": "address"
            },
            {
              "internalType": "string",
              "name": "message",
              "type": "string"
            },
            {
              "internalType": "uint256",
              "name": "timestamp",
              "type": "uint256"
            },
            {
              "internalType": "bool",
              "name": "isWin",
              "type": "bool"
            }
          ],
          "internalType": "struct WavePortal.Wave[]",
          "name": "",
          "type": "tuple[]"
        }
      ],
      "stateMutability": "view",
      "type": "function"
    },
    {
      "inputs": [],
      "name": "getTotalWaves",
      "outputs": [
        {
          "internalType": "uint256",
          "name": "",
          "type": "uint256"
        }
      ],
      "stateMutability": "view",
      "type": "function"
    },
    {
      "inputs": [
        {
          "internalType": "address",
          "name": "",
          "type": "address"
        }
      ],
      "name": "lastWavedAt",
      "outputs": [
        {
          "internalType": "uint256",
          "name": "",
          "type": "uint256"
        }
      ],
      "stateMutability": "view",
      "type": "function"
    },
    {
      "inputs": [
        {
          "internalType": "string",
          "name": "_message",
          "type": "string"
        }
      ],
      "name": "wave",
      "outputs": [],
      "stateMutability": "nonpayable",
      "type": "function"
    }
  ],
  "bytecode": "0x60806040526200004f6040518060400160405280601981526020017f57652068617665206265656e20636f6e737472756374656421000000000000008152506200007760201b620007421760201c565b606444426200005f9190620001c4565b6200006b919062000261565b60018190555062000308565b62000117816040516024016200008e919062000184565b6040516020818303038152906040527f41304fac000000000000000000000000000000000000000000000000000000007bffffffffffffffffffffffffffffffffffffffffffffffffffffffff19166020820180517bffffffffffffffffffffffffffffffffffffffffffffffffffffffff83818316178352505050506200011a60201b60201c565b50565b60008151905060006a636f6e736f6c652e6c6f679050602083016000808483855afa5050505050565b60006200015082620001a8565b6200015c8185620001b3565b93506200016e8185602086016200022b565b6200017981620002f7565b840191505092915050565b60006020820190508181036000830152620001a0818462000143565b905092915050565b600081519050919050565b600082825260208201905092915050565b6000620001d18262000221565b9150620001de8362000221565b9250827fffffffffffffffffffffffffffffffffffffffffffffffffffffffffffffffff0382111562000216576200021562000299565b5b828201905092915050565b6000819050919050565b60005b838110156200024b5780820151818401526020810190506200022e565b838111156200025b576000848401525b50505050565b60006200026e8262000221565b91506200027b8362000221565b9250826200028e576200028d620002c8565b5b828206905092915050565b7f4e487b7100000000000000000000000000000000000000000000000000000000600052601160045260246000fd5b7f4e487b7100000000000000000000000000000000000000000000000000000000600052601260045260246000fd5b6000601f19601f8301169050919050565b61118280620003186000396000f3fe608060405234801561001057600080fd5b506004361061004c5760003560e01c8063449d46c0146100515780639a2cdc081461006d578063a42a46631461008b578063bd43a908146100bb575b600080fd5b61006b600480360381019061006691906109e9565b6100d9565b005b6100756105b5565b6040516100829190610e08565b60405180910390f35b6100a560048036038101906100a091906109c0565b6105be565b6040516100b29190610e08565b60405180910390f35b6100c36105d6565b6040516100d09190610d34565b60405180910390f35b42601e600360003373ffffffffffffffffffffffffffffffffffffffff1673ffffffffffffffffffffffffffffffffffffffff168152602001908152602001600020546101269190610f25565b10610166576040517f08c379a000000000000000000000000000000000000000000000000000000000815260040161015d90610da8565b60405180910390fd5b42600360003373ffffffffffffffffffffffffffffffffffffffff1673ffffffffffffffffffffffffffffffffffffffff1681526020019081526020016000208190555060016000808282546101bc9190610f25565b925050819055506102026040518060400160405280600d81526020017f2573206861732077617665642100000000000000000000000000000000000000815250336107db565b606460015442446102139190610f25565b61021d9190610f25565b6102279190611037565b60018190555060326001541161046c576102766040518060400160405280600781526020017f257320776f6e2100000000000000000000000000000000000000000000000000815250336107db565b600260405180608001604052803373ffffffffffffffffffffffffffffffffffffffff16815260200183815260200142815260200160011515815250908060018154018082558091505060019003906000526020600020906004020160009091909190915060008201518160000160006101000a81548173ffffffffffffffffffffffffffffffffffffffff021916908373ffffffffffffffffffffffffffffffffffffffff160217905550602082015181600101908051906020019061033e9291906108a0565b506040820151816002015560608201518160030160006101000a81548160ff02191690831515021790555050506000655af3107a40009050478111156103b9576040517f08c379a00000000000000000000000000000000000000000000000000000000081526004016103b090610de8565b60405180910390fd5b60003373ffffffffffffffffffffffffffffffffffffffff16826040516103df90610d1f565b60006040518083038185875af1925050503d806000811461041c576040519150601f19603f3d011682016040523d82523d6000602084013e610421565b606091505b5050905080610465576040517f08c379a000000000000000000000000000000000000000000000000000000000815260040161045c90610dc8565b60405180910390fd5b5050610562565b600260405180608001604052803373ffffffffffffffffffffffffffffffffffffffff16815260200183815260200142815260200160001515815250908060018154018082558091505060019003906000526020600020906004020160009091909190915060008201518160000160006101000a81548173ffffffffffffffffffffffffffffffffffffffff021916908373ffffffffffffffffffffffffffffffffffffffff16021790555060208201518160010190805190602001906105349291906108a0565b506040820151816002015560608201518160030160006101000a81548160ff02191690831515021790555050505b3373ffffffffffffffffffffffffffffffffffffffff167f5f7e16dc676677766a70e9c5628aa6c54ddb8b6e5188e2ae1e1f17f1ffbea71642836040516105aa929190610e23565b60405180910390a250565b60008054905090565b60036020528060005260406000206000915090505481565b60606002805480602002602001604051908101604052809291908181526020016000905b8282101561073957838290600052602060002090600402016040518060800160405290816000820160009054906101000a900473ffffffffffffffffffffffffffffffffffffffff1673ffffffffffffffffffffffffffffffffffffffff1673ffffffffffffffffffffffffffffffffffffffff16815260200160018201805461068390611005565b80601f01602080910402602001604051908101604052809291908181526020018280546106af90611005565b80156106fc5780601f106106d1576101008083540402835291602001916106fc565b820191906000526020600020905b8154815290600101906020018083116106df57829003601f168201915b50505050508152602001600282015481526020016003820160009054906101000a900460ff161515151581525050815260200190600101906105fa565b50505050905090565b6107d8816040516024016107569190610d56565b6040516020818303038152906040527f41304fac000000000000000000000000000000000000000000000000000000007bffffffffffffffffffffffffffffffffffffffffffffffffffffffff19166020820180517bffffffffffffffffffffffffffffffffffffffffffffffffffffffff8381831617835250505050610877565b50565b61087382826040516024016107f1929190610d78565b6040516020818303038152906040527f319af333000000000000000000000000000000000000000000000000000000007bffffffffffffffffffffffffffffffffffffffffffffffffffffffff19166020820180517bffffffffffffffffffffffffffffffffffffffffffffffffffffffff8381831617835250505050610877565b5050565b60008151905060006a636f6e736f6c652e6c6f679050602083016000808483855afa5050505050565b8280546108ac90611005565b90600052602060002090601f0160209004810192826108ce5760008555610915565b82601f106108e757805160ff1916838001178555610915565b82800160010185558215610915579182015b828111156109145782518255916020019190600101906108f9565b5b5090506109229190610926565b5090565b5b8082111561093f576000816000905550600101610927565b5090565b600061095661095184610e84565b610e53565b90508281526020810184848401111561096e57600080fd5b610979848285610fc3565b509392505050565b60008135905061099081611135565b92915050565b600082601f8301126109a757600080fd5b81356109b7848260208601610943565b91505092915050565b6000602082840312156109d257600080fd5b60006109e084828501610981565b91505092915050565b6000602082840312156109fb57600080fd5b600082013567ffffffffffffffff811115610a1557600080fd5b610a2184828501610996565b91505092915050565b6000610a368383610c9e565b905092915050565b610a4781610f7b565b82525050565b610a5681610f7b565b82525050565b6000610a6782610ec4565b610a718185610ee7565b935083602082028501610a8385610eb4565b8060005b85811015610abf5784840389528151610aa08582610a2a565b9450610aab83610eda565b925060208a01995050600181019050610a87565b50829750879550505050505092915050565b610ada81610f8d565b82525050565b6000610aeb82610ecf565b610af58185610f03565b9350610b05818560208601610fd2565b610b0e81611124565b840191505092915050565b6000610b2482610ecf565b610b2e8185610f14565b9350610b3e818560208601610fd2565b610b4781611124565b840191505092915050565b6000610b5f602583610f14565b91507f57616974203330207365636f6e647320746f2073656e6420616e6f746865722060008301527f77617665210000000000000000000000000000000000000000000000000000006020830152604082019050919050565b6000610bc5602783610f14565b91507f4661696c656420746f207769746864726177206d6f6e65792066726f6d20636f60008301527f6e74726163742e000000000000000000000000000000000000000000000000006020830152604082019050919050565b6000610c2b603583610f14565b91507f547279696e6720746f207769746864726177206d6f7265206d6f6e657920746860008301527f616e207468657920636f6e7472616374206861732e00000000000000000000006020830152604082019050919050565b6000610c91600083610ef8565b9150600082019050919050565b6000608083016000830151610cb66000860182610a3e565b5060208301518482036020860152610cce8282610ae0565b9150506040830151610ce36040860182610d01565b506060830151610cf66060860182610ad1565b508091505092915050565b610d0a81610fb9565b82525050565b610d1981610fb9565b82525050565b6000610d2a82610c84565b9150819050919050565b60006020820190508181036000830152610d4e8184610a5c565b905092915050565b60006020820190508181036000830152610d708184610b19565b905092915050565b60006040820190508181036000830152610d928185610b19565b9050610da16020830184610a4d565b9392505050565b60006020820190508181036000830152610dc181610b52565b9050919050565b60006020820190508181036000830152610de181610bb8565b9050919050565b60006020820190508181036000830152610e0181610c1e565b9050919050565b6000602082019050610e1d6000830184610d10565b92915050565b6000604082019050610e386000830185610d10565b8181036020830152610e4a8184610b19565b90509392505050565b6000604051905081810181811067ffffffffffffffff82111715610e7a57610e796110f5565b5b8060405250919050565b600067ffffffffffffffff821115610e9f57610e9e6110f5565b5b601f19601f8301169050602081019050919050565b6000819050602082019050919050565b600081519050919050565b600081519050919050565b6000602082019050919050565b600082825260208201905092915050565b600081905092915050565b600082825260208201905092915050565b600082825260208201905092915050565b6000610f3082610fb9565b9150610f3b83610fb9565b9250827fffffffffffffffffffffffffffffffffffffffffffffffffffffffffffffffff03821115610f7057610f6f611068565b5b828201905092915050565b6000610f8682610f99565b9050919050565b60008115159050919050565b600073ffffffffffffffffffffffffffffffffffffffff82169050919050565b6000819050919050565b82818337600083830152505050565b60005b83811015610ff0578082015181840152602081019050610fd5565b83811115610fff576000848401525b50505050565b6000600282049050600182168061101d57607f821691505b60208210811415611031576110306110c6565b5b50919050565b600061104282610fb9565b915061104d83610fb9565b92508261105d5761105c611097565b5b828206905092915050565b7f4e487b7100000000000000000000000000000000000000000000000000000000600052601160045260246000fd5b7f4e487b7100000000000000000000000000000000000000000000000000000000600052601260045260246000fd5b7f4e487b7100000000000000000000000000000000000000000000000000000000600052602260045260246000fd5b7f4e487b7100000000000000000000000000000000000000000000000000000000600052604160045260246000fd5b6000601f19601f8301169050919050565b61113e81610f7b565b811461114957600080fd5b5056fea26469706673582212205916c82487ac055aaa0eceeeffee2833abd82013a1bb8f5012be37b8745abbd764736f6c63430008000033",
  "linkReferences": {},
  "deployedLinkReferences": {}
}